:100000000C9462000C948A000C948A000C948A0070
:100010000C948A000C948A000C948A000C948A0038
:100020000C948A000C948A000C948A000C948A0028
:100030000C948A000C948A000C948A000C948A0018
:100040000C94DE0B0C948A000C944E0C0C94280C2F
:100050000C948A000C948A000C948A000C948A00F8
:100060000C948A000C948A000000000024002700F1
:100070002A0000000000250028002B0000000008D6
:10008000000201000003040700000000000000005F
:1000900000000000230026002900040404040404D6
:1000A0000404020202020202030303030303010227
:1000B00004081020408001020408102001020408F6
:1000C0001020C50C11241FBECFEFD8E0DEBFCDBF7E
:1000D00011E0A0E0B1E0EEE5F5E202C005900D927E
:1000E000A43FB107D9F723E0A4EFB1E001C01D920E
:1000F000A135B207E1F710E0C2E6D0E004C02197D5
:10010000FE010E948512C136D107C9F70E948D0DEC
:100110000C94AD120C9400000F931F93CF93DF93B8
:10012000C0911C03EDE1F3E0CD3211F0ECE1F3E01E
:100130008F0120E030E0A901D801DD918D0180ED33
:100140008D0F8A3090F4AAE0B0E00E948B122D2F20
:10015000DD0F330B440B550B260F371F481F591F5C
:100160002053310941095109E7CFA4E6B0E00E94CC
:100170008B12AB01BC01DF01819190ED980F9A3099
:10018000D0F38E3259F511968C91119790ED980F0E
:100190009A3020F5082E000C990BC0972AE0289F72
:1001A0008001299F100D1124012E000C220B330B0E
:1001B000400F511F621F731F12968C9190ED980F84
:1001C0009A3060F4082E000C990BC097092E000C91
:1001D000AA0BBB0B480F591F6A1F7B1FCD3239F486
:1001E00070956095509541955F4F6F4F7F4FCB0154
:1001F000BA01DF91CF911F910F9108954F925F92B5
:100200006F927F928F929F92AF92BF92CF92DF9226
:10021000EF92FF921F93CF93DF93CCE1D3E0FE01E7
:10022000C12CD12C7601119180ED810F8A30A8F478
:10023000AAE0B0E0A70196010E948B12C12E110F17
:10024000DD08EE08FF08C60ED71EE81EF91E80E383
:10025000C81AD108E108F108E6CFC701B60124E6C3
:1002600030E040E050E00E9444129B01AC0160EAA3
:1002700076E881E090E00E9434124B015C019E011F
:10028000899190ED980F9A30D0F38E3221F5E901E3
:10029000219680E1482E87E2582E612C712CA9917D
:1002A00080ED8A0F8A30B8F40A2E000CBB0BD09771
:1002B000A30192010E949612860E971EA81EB91ED7
:1002C000C301B2012AE030E040E050E00E94441255
:1002D00029013A01E4CFC701B60124E630E040E04D
:1002E00050E00E94441260E472E48FE090E00E94CB
:1002F00034126B017C01C501B4016D5F7F4F8F4FDC
:100300009F4F26E030E040E050E00E944412C701D9
:10031000B601620F731F841F951FDF91CF911F914C
:10032000FF90EF90DF90CF90BF90AF909F908F9015
:100330007F906F905F904F900895CF92DF92EF92F1
:10034000FF92CF93DF93B091BA02A0E08111AB2F5F
:100350008091BB0290E0880F991FAC0140575F4F1E
:10036000C090C002D090C102E090C202F090C302DF
:1003700030E020E0FA01C591D491E881B90190E024
:1003800080E0EB23EA130AC02F5F3F4F6C157D0519
:100390008E059F0578F36FEF7FEFCB01DF91CF9153
:1003A000FF90EF90DF90CF900895833081F028F494
:1003B000813099F08230A9F008958730A9F0883013
:1003C000C9F08430B1F4809180008F7D03C08091AA
:1003D00080008F7780938000089584B58F7784BDE7
:1003E000089584B58F7DFBCF8091B0008F77809387
:1003F000B00008958091B0008F7DF9CFCF93DF9347
:10040000282F30E0F901E458FF4F8491F901E255BB
:10041000FF4FD491F901E656FF4FC491CC23A1F0D0
:1004200081110E94D501EC2FF0E0EE0FFF1FE05785
:10043000FF4FA591B491EC91ED2381E090E009F498
:1004400080E0DF91CF91089580E090E0FACF1F9394
:10045000CF93DF93282F30E0F901E458FF4F8491C8
:10046000F901E255FF4FD491F901E656FF4FC491CF
:10047000CC23A9F0162F81110E94D501EC2FF0E0BA
:10048000EE0FFF1FEE58FF4FA591B4918FB7F89470
:10049000EC91111108C0D095DE23DC938FBFDF9162
:1004A000CF911F910895DE2BF8CFCF93DF9390E08B
:1004B000FC01E255FF4F249186569F4FFC01849129
:1004C0008823C9F090E0880F991FFC01E859FF4F7D
:1004D000A591B491FC01EE58FF4FC591D4916111E3
:1004E0000DC09FB7F8948C91209582238C938881BE
:1004F000282328839FBFDF91CF910895623051F464
:100500009FB7F8943C91822F809583238C93E88148
:100510002E2BEFCF8FB7F894EC912E2B2C938FBF0F
:10052000EACF3FB7F89480910A0290910B02A09114
:100530000C02B0910D0226B5A89B05C02F3F19F003
:100540000196A11DB11D3FBFBA2FA92F982F882753
:10055000BC01CD01620F711D811D911D42E0660F2E
:10056000771F881F991F4A95D1F708958F929F9200
:10057000AF92BF92CF92DF92EF92FF924B015C015C
:100580000E9491026B017C010E9491026C197D090D
:100590008E099F09683E734081059105A8F321E00B
:1005A000821A9108A108B10888EEC80E83E0D81E0F
:1005B000E11CF11C81149104A104B10429F7FF90FE
:1005C000EF90DF90CF90BF90AF909F908F90089565
:1005D000CF92DF92EF92FF920F931F93CF93DF930F
:1005E000CDB7DEB7C054D1400FB6F894DEBF0FBE12
:1005F000CDBF2FB7F89480910E0290910F02A09179
:100600001002B09111022FBF4091BC025091BD0267
:100610006091BE027091BF028C019D01041B150BFD
:10062000260B370BB901A801403D57406105710504
:1006300090F48091C402C05CDE4F0FB6F894DEBF28
:100640000FBECDBFDF91CF911F910F91FF90EF9023
:10065000DF90CF9008958093BC029093BD02A09349
:10066000BE02B093BF021092B7021092B60210926F
:10067000B5021092B4021092B30262E08091B80207
:100680000E94550261E070E080E090E00E94B602B6
:1006900061E08091B8020E94550260E08091B8024A
:1006A0000E9427028091B9028551823020F58BE2A9
:1006B00091E10197F1F762E08091B8020E94550242
:1006C0008091C50290E08230910538F0880F991F23
:1006D000880F991F05970197F1F7F89480E00E9421
:1006E0009D016F3F7F4F8F4F9F4F61F41092C40267
:1006F000789480E0A0CF64E170E080E090E00E9418
:10070000B602D9CF81E00E949D016F3F7F4F8F4F8E
:100710009F4F61F38E010F5F1F4F6E018FEBC81A61
:100720008EEFD80A780180E00E949D01F701608376
:1007300071838283938381E00E949D01F70164832A
:10074000758386839783F8E0EF0EF11CEC14FD04AB
:1007500051F7789430E020E0F801C080D180E28049
:10076000F3804481558166817781FFEFCF16DF06E4
:10077000EF06FF0631F04F3F8FEF58076807780705
:1007800019F41092C402B5CFF90183E0F595E7950D
:100790008A95E1F7ED54FD4F8081880FC416D50688
:1007A000E606F70610F180832F5F3F4F085F1F4F6B
:1007B0002832310589F64091B7022091B302809129
:1007C000B402280F3327331F8091B502280F311D43
:1007D0008091B602820F932F911D99274817190611
:1007E00081F681E08093C40226CF8160DCCFAF9296
:1007F000BF92CF92DF92EF92FF920F931F93CF930E
:10080000DF936C017B018B01040F151FEB015E016F
:10081000AE18BF08C017D10759F06991D601ED9104
:10082000FC910190F081E02DC6010995892B79F7A3
:10083000C501DF91CF911F910F91FF90EF90DF9055
:10084000CF90BF90AF900895FC01538D448D252F1C
:1008500030E0842F90E0821B930B541710F0CF965A
:10086000089501970895FC01918D828D981761F08C
:10087000A28DAE0FBF2FB11D5D968C91928D9F5FA3
:100880009F73928F90E008958FEF9FEF0895FC0182
:10089000918D828D981731F0828DE80FF11D858D35
:1008A00090E008958FEF9FEF0895FC01918D228DC8
:1008B000892F90E0805C9F4F821B91098F7399274D
:1008C000089586E192E00E94550421E0892B09F405
:1008D00020E0822F089580E090E0892B29F00E948B
:1008E000610481110C9400000895FC01A48DA80FEF
:1008F000B92FB11DA35ABF4F2C91848D90E0019662
:100900008F739927848FA689B7892C93A089B18981
:100910008C91837080648C93938D848D981306C022
:100920000288F389E02D80818F7D80830895EF9286
:10093000FF920F931F93CF93DF93EC0181E0888F99
:100940009B8D8C8D98131AC0E889F989808185FF69
:1009500015C09FB7F894EE89FF896083E889F9890B
:1009600080818370806480839FBF81E090E0DF910D
:10097000CF911F910F91FF90EF900895F62E0B8D60
:1009800010E00F5F1F4F0F731127E02E8C8D8E111B
:100990000CC00FB607FCFACFE889F989808185FF82
:1009A000F5CFCE010E947504F1CFEB8DEC0FFD2F3A
:1009B000F11DE35AFF4FF0829FB7F8940B8FEA893D
:1009C000FB8980818062CFCFCF93DF93EC01888D4C
:1009D0008823B9F0AA89BB89E889F9898C9185FDBA
:1009E00003C0808186FD0DC00FB607FCF7CF8C9148
:1009F00085FFF2CF808185FFEDCFCE010E94750487
:100A0000E9CFDF91CF910895089590E080E00895B7
:100A1000CF93DF93EC0160E08E810E94270261E0BA
:100A20008E810E94270260E08E810E9427028BE85F
:100A300091E00197F1F7DF91CF910895CF92DF9286
:100A4000EF92FF920F931F93CF93DF936C017C0182
:100A500087E0E80EF11CD0E0C0E0062F10E0B801FE
:100A60000C2E02C0759567950A94E2F76170F70144
:100A700081917F010E9427022196C430D10579F728
:100A8000C601DF91CF911F910F91FF90EF90DF9002
:100A9000CF900C940805CF92DF92EF92FF920F93C4
:100AA0001F93CF93DF93EC01F62E642F8C810E946D
:100AB00027028D818F3F19F060E00E9427020F2DE1
:100AC00010E08F8584FF25C06E0187E0C80ED11C21
:100AD000F12CE12CB8010E2C02C0759567950A9493
:100AE000E2F76170F60181916F010E942702FFEF2A
:100AF000EF1AFF0A88E0E816F10461F7CE01DF91F2
:100B0000CF911F910F91FF90EF90DF90CF900C94B9
:100B10000805B80184E0759567958A95E1F7CE01DF
:100B20000E941E056F2DCE01DF91CF911F910F9175
:100B3000FF90EF90DF90CF900C941E0540E0682F5F
:100B400089E393E00C944B0581E00E949E058BE3C2
:100B50009FE10197F1F70895CF93DF93823029F455
:100B60009091480398609093480380934C031092AF
:100B70004D0380E480934E0380E180934F0380E532
:100B80008093500361E080913D030E945502809163
:100B90003E038F3F19F061E00E94550261E08091B1
:100BA0003F030E945502C9E3D3E09E01295333401D
:100BB0008091480384FD0BC084E090E021962817C3
:100BC000390744F461E08E810E945502EECF88E03F
:100BD00090E0F4CF8BE39DE00197F1F760E0809126
:100BE0003D030E94270260E080913F030E9427029C
:100BF00080913E038F3F19F060E00E9427028091B0
:100C0000480384FD34C063E089E393E00E941E053D
:100C1000CBE4D6E4CE010197F1F763E089E393E0FA
:100C20000E941E052197F1F763E089E393E00E949B
:100C30001E0583E592E00197F1F762E089E393E016
:100C40000E941E058091480380620E949E0584E0F8
:100C5000809349038CE00E949E050E94A40582E0D7
:100C600080934A0386E0DF91CF910C949E058062C9
:100C70000E949E058BE496E40197F1F7809148036A
:100C800080620E949E0583E592E00197F1F78091D2
:100C9000480380620E949E05D5CF90914C0369174E
:100CA00010F06FEF690FE62FF0E0E75CFC4F9489DE
:100CB000890F80680C949E0541E00E944B0581E0FD
:100CC00090E008950F931F9360E08DE00E9427024B
:100CD00061E08DE00E94270283E290E00197F1F746
:100CE00060E08DE00E942702E9EBF0E06491E5EA24
:100CF000F0E0E491F0E0EE0FFF1FE057FF4F859129
:100D0000949100E412E42FE030E0462F0E94800C22
:100D1000611571058105910529F06F5F7F4F8F4F38
:100D20009F4F9F706093120270931302809314027E
:100D3000909315022AE330E040E050E00E946612F2
:100D4000CA01B9011F910F910895FB010190002084
:100D5000E9F73197AF01461B570BDC01ED91FC9190
:100D60000280F381E02D09948F929F92AF92BF92FF
:100D7000EF92FF920F931F93CF93DF93CDB7DEB720
:100D8000A1970FB6F894DEBF0FBECDBF7C01FA016C
:100D9000CB0119A2223008F42AE08E010F5D1F4F0B
:100DA000822E912CB12CA12CBF01A50194010E948F
:100DB0004412F901CA016A300CF5605DD8016E93E6
:100DC0008D01232B242B252B79F790E080E01097C1
:100DD00021F0BD01C7010E94A506A1960FB6F894A7
:100DE000DEBF0FBECDBFDF91CF911F910F91FF905E
:100DF000EF90BF90AF909F908F900895695CDECF89
:100E0000BC0189E393E00C94A506CF93DF93BC016A
:100E100086E192E00E94A506EC016EE171E086E1B8
:100E200092E00E94A5068C0F9D1FDF91CF9108953F
:100E30002F923F924F925F926F927F928F929F92EA
:100E4000AF92BF92CF92DF92EF92FF921F93CF9318
:100E5000DF93EC016A017B01722EAB019601CB019D
:100E6000B6010E942F1261E271E0811126C0460195
:100E70005701E894B7F82FEF3FEF4FE75FE7C50161
:100E8000B4010E942F1281110CC02FEF3FEF4FE7EA
:100E90005FE7C501B4010E94651065E271E01816B4
:100EA00064F02FEF3FEF4FE75FE4C701B6010E9408
:100EB000BD111816B4F469E271E0CE01DF91CF9153
:100EC0001F91FF90EF90DF90CF90BF90AF909F90D9
:100ED0008F907F906F905F904F903F902F900C94E9
:100EE000A5062FEF3FEF4FE75FECC701B6010E9469
:100EF000651087FDE0CF20E030E0A901C701B60111
:100F00000E946510312C212C87FF0DC0E881F981EA
:100F10000190F081E02D6DE2CE0109951C01F7FAF8
:100F2000F094F7F8F09410E060E070E080E09FE368
:100F3000711641F020E030E040E251E40E946A1076
:100F40001F5FF6CFA70196010E94F90F2B013C010C
:100F50000E94DC104B015C012AE0BC01A401CE011F
:100F60000E94B4067C01E20CF31C1123E1F1C501DF
:100F7000B4010E940B119B01AC01C301B2010E949C
:100F8000F80F4B015C01E881F9810190F081E02DBF
:100F90006EE2CE010995E80EF91E115020F120E015
:100FA00030E040E251E4C501B4010E94C2112B01BE
:100FB0003C010E94DC104B01B12CA12C2AE0B501B0
:100FC000A401CE010E94B406E80EF91EC501B401C9
:100FD0000E940B119B01AC01C301B2010E94F80FEA
:100FE0004B015C01DACFC701DF91CF911F91FF90D8
:100FF000EF90DF90CF90BF90AF909F908F907F90B9
:101000006F905F904F903F902F900895DF92EF92F6
:10101000FF920F931F93CF93DF930E94A4058DE25D
:1010200091E00E94000762E083E00E944D068FE39A
:1010300091E00E94000764EF71E080E090E00E9480
:10104000B6028BE491E00E94050764E670E080E060
:1010500090E00E94B60285E591E00E94050764E6F3
:1010600070E080E090E00E94B6028DE291E00E9484
:1010700005078EE691E00E94050702E0FF24F39445
:1010800086E192E00E945504892BD1F386E192E03B
:101090000E943304182FC1E0D0E080912F0390917B
:1010A0003003A0913103B09132030196A11DB11D0F
:1010B00080932F0390933003A0933103B0933203B6
:1010C000143209F432C3E0912D0315324CF41A3076
:1010D00019F01D3009F036C3EF3068F0E12CCBC0B9
:1010E0001A32D1F31C3209F02DC380911A038127E3
:1010F00080931A03F1CF90912C03F0E0E45EFC4F53
:101100001082E0901B03EE2009F4CAC120911C0359
:10111000822F022E000C990B3FEB320F363008F075
:101120004BC1C7978295807F90911D03292F092E6F
:10113000000C330B4FEB490F463008F045C12753E5
:101140003109820F90911A038913A0C1E0902E03F8
:10115000EE2021F280913303909134030196909315
:1011600034038093330380910E0390910F03A09179
:101170001003B091110380930A0390930B03A09383
:101180000C03B0930D038091160390911703A09167
:101190001803B09119038093120390931303A09343
:1011A0001403B093150380912B03882309F415C110
:1011B000813009F060C08091CA029091CB02A09169
:1011C000CC02B091CD028093C6029093C702A09347
:1011D000C802B093C9028091D2029091D302A0912B
:1011E000D402B091D5028093CE029093CF02A09307
:1011F000D002B093D1028091DA029091DB02A091EB
:10120000DC02B091DD028093D6029093D702A093C6
:10121000D802B093D9028091E2029091E302A091AA
:10122000E402B091E5028093DE029093DF02A09386
:10123000E002B093E1028091F2029091F302A0915A
:10124000F402B091F5028093EE029093EF02A09326
:10125000F002B093F1028091FA029091FB02A0910A
:10126000FC02B091FD028093F6029093F702A093E6
:10127000F802B093F90280912C038F5F80932C03C6
:1012800010922D0381E01A3209F080E080931B0355
:10129000E1106CC2219709F4F3CE0E94A40560E02E
:1012A00080E00E944D0680E991E00E940007609175
:1012B000F8017091F9018091FA019091FB010E946F
:1012C0000D112DEB37E346E855E30E94C211AB0147
:1012D000BC0128E089E393E00E94180761E080E008
:1012E0000E944D0686E991E00E9400076091F4019A
:1012F0007091F5018091F6019091F7010E940D1116
:101300002DEB37E346E855E30E94C211AB01BC0167
:1013100028E089E393E00E94180780E991E00E94A9
:1013200005076091F8017091F9018091FA0190919F
:10133000FB010E940D112DEB37E346E855E30E94B7
:10134000C211AB01BC0128E086E192E00E941807BF
:101350006EE171E086E192E00E94A50686E991E0E7
:101360000E9405076091F4017091F5018091F601EA
:101370009091F7010E940D112DEB37E346E855E3FC
:101380000E94C211AB01BC0128E086E192E00E94FC
:1013900018076EE171E086E192E00E94A50664E61E
:1013A00070E080E090E0DF91CF911F910F91FF906E
:1013B000EF90DF900C94B6022156263018F4875532
:1013C0009109B0CEC097AECE9156963018F42755FD
:1013D0003109B7CE20533109B4CE8091EA02909101
:1013E000EB02A091EC02B091ED028093E6029093A3
:1013F000E702A093E802B093E9028091CA029091BB
:10140000CB02A091CC02B091CD028093C602909302
:10141000C702A093C802B093C9028091DA029091EA
:10142000DB02A091DC02B091DD028093D6029093A2
:10143000D702A093D802B093D9028091E202909192
:10144000E302A091E402B091E5028093DE02909362
:10145000DF02A093E002B093E10280910803909133
:1014600009039093070380930603809102039091F0
:101470000303A0910403B09105038093FE029093AF
:10148000FF02A0930003B0930103F5CE80913503D2
:1014900090913603019690933603809335031ECEC8
:1014A00091111CC0ACE1B3E044E851E09D01F901A9
:1014B00081919F01882309F47BC1FA019191AF01C9
:1014C0008917A9F3EAE8F1E08D91882309F473C143
:1014D00091918917C9F300932B03CDCEE0912B0393
:1014E000E23009F4FBCD80911C03882309F4F6CD8A
:1014F00020E2E29FF0011124E92B3197E932F10556
:1015000008F0B9CEEA57F54F0C948512CC0AF00AD0
:101510000E0B290B340B6E0B750B7F0B8A0B3B09E3
:101520003B093B093B093B093B093B093B093B099B
:101530003B093B093B093B093B093B093B093B098B
:101540003B093B093B093B093B093B09CC0AEA0A39
:10155000F00A0E0B290B340B4F0B5A0BAF0AECE1C0
:10156000F3E020E030E0A901D19080ED8D0D8A30CC
:1015700008F0ABC0AAE0B0E00E948B122D2DDD0C6C
:10158000330B440B550B260F371F481F591F205391
:10159000310941095109E8CF0E948C006093CA02C9
:1015A0007093CB028093CC029093CD022FB7F89426
:1015B00080910E0290910F02A0911002B091110241
:1015C0002FBF80930E0390930F03A0931003B0934B
:1015D000110351CE91E0813409F484C090E082C0BF
:1015E0000E94FE006093DA027093DB028093DC02BB
:1015F0009093DD022FB7F89480910E0290910F0224
:10160000A0911002B09111022FBF80931603909306
:101610001703A0931803B09319032DCE833509F057
:101620005DCD8091DA029091DB02A091DC02B09155
:10163000DD02B095A095909581959F4FAF4FBF4F1C
:101640008093DA029093DB02A093DC02B093DD0278
:1016500012CE0E94FE006093E2027093E302809338
:10166000E4029093E50207CE873509F037CD8091EB
:10167000E2029091E302A091E402B091E502B095FC
:10168000A095909581959F4FAF4FBF4F8093E202F9
:101690009093E302A093E402B093E502ECCD0E94A4
:1016A0008C006093F2027093F3028093F4029093A3
:1016B000F502E1CD0E948C006093FA027093FB0268
:1016C0008093FC029093FD02D6CD2093D2023093FA
:1016D000D3024093D4025093D502CDCD91E0813313
:1016E0000CF47CCF90932E03C6CD8CE193E00E9446
:1016F000D20F99279093090380930803BCCD0E94D1
:101700008C0060930203709303038093040390930F
:101710000503B1CD0E948C006093EA027093EB0246
:101720008093EC029093ED02A6CD10922D031092BF
:101730002C0310921A0300932B0310921B03109298
:101740002E03A8CDEE3040F481E08E0F80932D0360
:10175000F0E0E45EFC4F108380911B0381119ACD71
:1017600080911A03182710931A0394CD8091D60202
:101770009091D702A091D802B091D9028093F8013C
:101780009093F901A093FA01B093FB018091DE02DE
:101790009091DF02A091E002B091E1028093F40108
:1017A0009093F501A093F601B093F701219775CCC2
:1017B000F0922B0360CD10922B035DCD1F920F9200
:1017C0000FB60F9211242F933F938F939F93AF9354
:1017D000BF9380910E0290910F02A0911002B091E0
:1017E00011023091090223E0230F2D3758F501969D
:1017F000A11DB11D2093090280930E0290930F0248
:10180000A0931002B093110280910A0290910B02F2
:10181000A0910C02B0910D020196A11DB11D809303
:101820000A0290930B02A0930C02B0930D02BF9199
:10183000AF919F918F913F912F910F900FBE0F907D
:101840001F90189526E8230F0296A11DB11DD2CF37
:101850001F920F920FB60F9211242F933F934F9325
:101860005F936F937F938F939F93AF93BF93EF9308
:10187000FF9386E192E00E947504FF91EF91BF9182
:10188000AF919F918F917F916F915F914F913F9118
:101890002F910F900FBE0F901F9018951F920F92CF
:1018A0000FB60F9211242F938F939F93EF93FF9373
:1018B000E0912602F09127028081E0912C02F091C4
:1018C0002D0282FD1BC0908180912F028F5F8F734C
:1018D00020913002821741F0E0912F02F0E0EA5EA1
:1018E000FD4F958F80932F02FF91EF919F918F91E4
:1018F0002F910F900FBE0F901F9018958081F4CFFD
:10190000CF92DF92EF92FF920F931F93E82FF92F60
:1019100005C0015011092109310961F19081962317
:101920009417B9F305C0015011092109310911F1CA
:10193000908196239413F7CFC12CD12CE12CF12C5C
:101940000AC08FEFC81AD80AE80AF80A0C151D0554
:101950002E053F0579F080818623841791F36C2D45
:101960007D2D8E2D9F2D1F910F91FF90EF90DF9079
:10197000CF90089560E070E080E090E01F910F91BB
:10198000FF90EF90DF90CF900895E6E1F2E01382B0
:10199000128288EE93E0A0E0B0E084839583A68372
:1019A000B78384E091E09183808385EC90E0958714
:1019B000848784EC90E09787868780EC90E0918B19
:1019C000808B81EC90E0938B828B82EC90E0958B06
:1019D000848B86EC90E0978B868B118E128E138E03
:1019E000148EE9E3F3E01382128286E191E09183A1
:1019F000808384E084838FEF858385E0868386E01F
:101A0000878387E0808788E0818789E082871386E3
:101A1000148615861686178681E00E94AC05E6ECD2
:101A2000F2E04FEF5FEFBA0140835183628373832B
:101A300010861186128613868FEF99ECAAE9BBE314
:101A4000808B918BA28BB38B808F918FA28FB38F62
:101A500080A391A3A2A3B3A380A791A7A2A7B3A792
:101A600080AB91ABA2ABB3AB40AF51AF62AF73AF42
:101A70008FEF90E0909307038093060340930A034F
:101A800050930B0360930C0370930D034093120368
:101A900050931303609314037093150310921A0369
:101AA00010921B0382E080932B0310922C03109260
:101AB0002D0310922E0310922F03109230031092D8
:101AC00031031092320310923403109233031092B8
:101AD00036031092350310921C03A3EBB2E0159667
:101AE0008C9315978BE016968C931697E0EBF0E0AD
:101AF000E4911796EC931797ECE9F0E0E4911896CF
:101B0000EC93189740E85EE360E070E01D964D931B
:101B10005D936D937C9350970895789484B582601B
:101B200084BD84B5816084BD85B5826085BD85B581
:101B3000816085BD80916E00816080936E001092FF
:101B4000810080918100826080938100809181007A
:101B5000816080938100809180008160809380000B
:101B60008091B10084608093B1008091B000816069
:101B70008093B00080917A00846080937A00809195
:101B80007A00826080937A0080917A0081608093ED
:101B90007A0080917A00806880937A001092C10068
:101BA000E0912602F091270282E08083E0912202F8
:101BB000F09123021082E0912402F09125028FEC33
:101BC000808310922E02E0912A02F0912B0286E08F
:101BD0008083E0912802F0912902808180618083D6
:101BE000E0912802F0912902808188608083E09151
:101BF0002802F0912902808180688083E091280288
:101C0000F091290280818F7D808361E083E00E94D2
:101C1000550260E08AE00E94550260E08CE00E947C
:101C2000550261E08DE00E94550260E08BE00E9469
:101C3000550282E00E94AC058CE991E00E94000709
:101C400062E084E00E944D068BEA91E00E9400076A
:101C500062E08091B8020E9455022FB7F8948091FB
:101C60000E0290910F02A0911002B09111022FBFAD
:101C7000805D9740A109B1098093BC029093BD0299
:101C8000A093BE02B093BF0287E38093C5026AEFC0
:101C900070E080E090E00E94B602C0E0D0E00E94D8
:101CA000A4050E94E802882351F08091B9028B308C
:101CB00030F08D3048F08551823008F440C060E04B
:101CC00070E080EC9FE71CC06091B40270E090E08F
:101CD00080E00E940D112DEC3CEC4CEC5DE30E9489
:101CE000C2116B017C016091B30270E090E080E072
:101CF0000E940D119B01AC01C701B6010E94F90FB2
:101D00006093050270930602809307029093080285
:101D100062E370E080E090E00E94B6020E94E80278
:101D2000882341F08091B9028C3009F4D9C0C8F4FD
:101D30008B3081F160E070E080EC9FE753C06091F0
:101D4000B3027091B40276276727762790E080E08F
:101D50000E940B112DEC3CEC4CEC5DE30E94C21197
:101D6000CFCF8551823030F71091B502612F70E0EE
:101D7000762F662766277F778091B602682B90E0E2
:101D800080E00E940B112DEC3CEC4CEC5DE30E94DA
:101D9000C211C2C06091B50270E090E080E00E9484
:101DA0000B116B017C011091B60217FF0AC0AC0148
:101DB0009B0160E070E080E89FEB0E94F80F6B01F0
:101DC0007C011F70612F70E090E080E00E940D1197
:101DD0002DEC3CEC4CEC5DE30E94C211A701960196
:101DE0000E94F90F60930102709302028093030234
:101DF0009093040260E080E00E944D0682EB91E047
:101E00000E9400074091010250910202609103027A
:101E10007091040222E089E393E00E94180789EBA5
:101E200091E00E94000761E080E00E944D068CEB8B
:101E300091E00E94000740910502509106026091D6
:101E400007027091080222E089E393E00E941807DC
:101E500082EC91E00E94000762E370E080E090E095
:101E60000E94B6028CE00E94FE01892B11F00E94B4
:101E700006080E9462066093FD017093FE01809344
:101E8000FF01909300028091FD019091FE01A091CD
:101E9000FF01B0910002C297A105B1050CF066C028
:101EA0008CE00E94FE01892B11F00E94060861E07F
:101EB00083E00E9427020E94A40585EC91E00E9425
:101EC000000762E083E00E944D0685ED91E00E94EC
:101ED000000764E670E080E090E00E94B602C9CF9F
:101EE0001091B502612F70E090E080E00E940B112C
:101EF0006B017C016091B6026F7070E090E080E051
:101F00000E940D112DEC3CEC4CEC5DE30E94C211E3
:101F1000A70196010E94F90F17FF64CF905862CF76
:101F200020E02093FC018091FC01811126C08CE00F
:101F30000E94FE01892B11F00E9406080E94A40550
:101F40008CED91E00E94000762E083E00E944D0664
:101F500086EE91E00E94000761E083E00E94270284
:101F600064E670E080E090E00E94B6028AE00E94A1
:101F7000FE0121E0892BA9F6D3CF62E370E080E077
:101F800090E00E94B60260E083E00E942702209762
:101F900009F485CE0E946104882309F480CE0E9452
:101FA00000007DCEFC0188279927E89421912032FA
:101FB000E9F3293010F02E30C8F32B3241F02D32E6
:101FC00039F4689404C00E94F00F820F911D219192
:101FD00020532A30C0F31EF4909581959F4F0895A9
:101FE0007AE0979F902D879F802D910D1124089561
:101FF0005058BB27AA270E9410100C9483110E94EE
:10200000751138F00E947C1120F039F49F3F19F4CB
:1020100026F40C9472110EF4E095E7FB0C946C110D
:10202000E92F0E94941158F3BA17620773078407C7
:10203000950720F079F4A6F50C94B6110EF4E0950E
:102040000B2EBA2FA02D0B01B90190010C01CA0172
:10205000A0011124FF27591B99F0593F50F4503E1D
:1020600068F11A16F040A22F232F342F4427585F0F
:10207000F3CF469537952795A795F0405395C9F727
:102080007EF41F16BA0B620B730B840BBAF09150DF
:10209000A1F0FF0FBB1F661F771F881FC2F70EC07E
:1020A000BA0F621F731F841F48F487957795679551
:1020B000B795F7959E3F08F0B0CF9395880F08F03D
:1020C0009927EE0F9795879508950E94481108F477
:1020D00081E008950E947E100C9483110E947C116F
:1020E00058F00E94751140F029F45F3F29F00C94DC
:1020F0006C1151110C94B7110C9472110E9494112F
:1021000068F39923B1F3552391F3951B550BBB2726
:10211000AA2762177307840738F09F5F5F4F220F6B
:10212000331F441FAA1FA9F335D00E2E3AF0E0E862
:1021300032D091505040E695001CCAF72BD0FE2FAC
:1021400029D0660F771F881FBB1F26173707480740
:10215000AB07B0E809F0BB0B802DBF01FF279358F8
:102160005F4F3AF09E3F510578F00C946C110C943F
:10217000B7115F3FE4F3983ED4F386957795679562
:10218000B795F7959F5FC9F7880F911D969587952D
:1021900097F90895E1E0660F771F881FBB1F62174C
:1021A00073078407BA0720F0621B730B840BBA0B0A
:1021B000EE1F88F7E09508950E949C1188F09F57C4
:1021C00098F0B92F9927B751B0F0E1F0660F771F5B
:1021D000881F991F1AF0BA95C9F714C0B13091F051
:1021E0000E94B611B1E008950C94B611672F782FB4
:1021F0008827B85F39F0B93FCCF386957795679516
:10220000B395D9F73EF490958095709561957F4F81
:102210008F4F9F4F0895E89409C097FB3EF4909527
:102220008095709561957F4F8F4F9F4F9923A9F0AF
:10223000F92F96E9BB279395F6958795779567953E
:10224000B795F111F8CFFAF4BB0F11F460FF1BC082
:102250006F5F7F4F8F4F9F4F16C0882311F096E915
:1022600011C0772321F09EE8872F762F05C06623C3
:1022700071F096E8862F70E060E02AF09A95660F7C
:10228000771F881FDAF7880F9695879597F9089535
:10229000990F0008550FAA0BE0E8FEEF1616170677
:1022A000E807F907C0F012161306E407F50798F0DF
:1022B000621B730B840B950B39F40A2661F0232BF8
:1022C000242B252B21F408950A2609F4A140A69574
:1022D0008FEF811D811D089597F99F6780E870E059
:1022E00060E008959FEF80EC089500240A9416168C
:1022F000170618060906089500240A9412161306F4
:10230000140605060895092E0394000C11F4882381
:1023100052F0BB0F40F4BF2B11F460FF04C06F5F9D
:102320007F4F8F4F9F4F089557FD9058440F551F73
:1023300059F05F3F71F04795880F97FB991F61F047
:102340009F3F79F087950895121613061406551FBE
:10235000F2CF4695F1DF08C0161617061806991F2A
:10236000F1CF86957105610508940895E894BB271F
:1023700066277727CB0197F908950E94481108F442
:102380008FEF08950E94D5110C9483110E9475114E
:1023900038F00E947C1120F0952311F00C946C1100
:1023A0000C94721111240C94B7110E94941170F3C3
:1023B000959FC1F3950F50E0551F629FF001729FEA
:1023C000BB27F00DB11D639FAA27F00DB11DAA1FF9
:1023D000649F6627B00DA11D661F829F2227B00D46
:1023E000A11D621F739FB00DA11D621F839FA00DD1
:1023F000611D221F749F3327A00D611D231F849F21
:10240000600D211D822F762F6A2F11249F57504077
:102410009AF0F1F088234AF0EE0FFF1FBB1F661FF2
:10242000771F881F91505040A9F79E3F510580F0BB
:102430000C946C110C94B7115F3FE4F3983ED4F305
:10244000869577956795B795F795E7959F5FC1F75F
:10245000FE2B880F911D9695879597F908950E94F8
:102460004811880B990B0895DB018F939F930E946D
:102470008B12BF91AF91A29F800D911DA39F900DD4
:10248000B29F900D11240895A1E21A2EAA1BBB1B26
:10249000FD010DC0AA1FBB1FEE1FFF1FA217B30730
:1024A000E407F50720F0A21BB30BE40BF50B661F46
:1024B000771F881F991F1A9469F76095709580950A
:1024C00090959B01AC01BD01CF010895052E97FBAE
:1024D0001EF400940E947D1257FD07D00E94441202
:1024E00007FC03D04EF40C947D1250954095309526
:1024F00021953F4F4F4F5F4F089590958095709570
:1025000061957F4F8F4F9F4F0895EE0FFF1F0590EE
:10251000F491E02D09940E949E12A59F900DB49F06
:10252000900DA49F800D911D11240895B7FF0C9468
:102530008B120E948B12821B930B0895A29FB001F5
:10254000B39FC001A39F700D811D1124911DB29FE7
:0E255000700D811D1124911D0895F894FFCF88
:10255E00000000009704F7032404E4045504330438
:10256E004704000000005C06F703050504050D0A8C
:10257E00006E616E00696E66006F76660041636381
:10258E006964656E74204465746563746564005394
:10259E00656E64696E67204D73670041542B434D21
:1025AE0047463D310041542B434D47533D222B3975
:1025BE003131323334353637383930220D00706CC4
:1025CE006561736520636865636B206C6F6361740E
:1025DE00696F6E004750524D4300475047474100C8
:1025EE004C61743A20004C6F6E3A200043415220E9
:1025FE004D414E4147454D454E5400535953544558
:10260E004D0054656D703A200020430048756D3AB8
:10261E002000202500414C4552543A2044697374E1
:10262E00616E6365003C203530636D0053656174E7
:10263E002042656C74006E6F74204465746563741B
:04264E0065640000BF
:00000001FF
